:02000000292AAB
:10000600AC28831203132808013A031D1828270871
:10001600F1000130F000710803191528F00D701079
:10002600FF3E0F287008850426282708F1000130B6
:10003600F000710803192328F00D7010FF3E1D28EB
:10004600F00970088505C3282808013A031D3928D8
:100056002708F1000130F000710803193628F00D69
:100066007010FF3E30287008860447282708F100E4
:100076000130F000710803194428F00D7010FF3E9E
:100086003E28F00970088605C3282808013A031D92
:100096005A282708F1000130F00071080319572883
:1000A600F00D7010FF3E5128700887046828270855
:1000B600F1000130F000710803196528F00D701089
:1000C600FF3E5F28F00970088705C3282808013A13
:1000D600031D7B282708F1000130F0007108031981
:1000E6007828F00D7010FF3E722870088804892861
:1000F6002708F1000130F000710803198628F00D79
:100106007010FF3E8028F00970088805C32828086B
:10011600013A031D9C282708F1000130F000710800
:1001260003199928F00D7010FF3E93287008890472
:10013600AA282708F1000130F00071080319A72842
:10014600F00D7010FF3EA128F00970088905C3283C
:10015600C328831203132608003A03190428260825
:10016600013A031927282608023A031948282608BF
:10017600033A031969282608043A03198A28AB2882
:0201860008006F
:1001880083120313A8010F292708F0000508A80007
:1001980070080319D328A80CA813FF3ECD280130F6
:1001A800A80524292708F0000608A80070080319E4
:1001B800E128A80CA813FF3EDB280130A805242954
:1001C8002708F0000708A80070080319EF28A80CF2
:1001D800A813FF3EE9280130A80524292708F000C4
:1001E8000808A80070080319FD28A80CA813FF3EEA
:1001F800F7280130A80524292708F0000908A800D5
:10020800700803190B29A80CA813FF3E0529013013
:10021800A805242924292608003A0319C8282608ED
:10022800013A0319D6282608023A0319E4282608B1
:10023800033A0319F2282608043A031900290E295B
:060248002808F000080088
:10024E00E329831203132808003A031D3E292708C9
:10025E00F1000130F000710803193929F00D70100A
:10026E00FF3E3329F0097008831685054D29831248
:10027E002708F1000130F000710803194A29F00D2A
:10028E007010FF3E4429700883168504FA298312E4
:10029E002808003A031D63292708F1000130F000F9
:1002AE00710803195E29F00D7010FF3E5829F009F0
:1002BE00700883168605722983122708F100013013
:1002CE00F000710803196F29F00D7010FF3E6929B7
:1002DE00700883168604FA2983122808003A031D33
:1002EE0088292708F1000130F000710803198329CD
:1002FE00F00D7010FF3E7D29F009700883168705FA
:10030E00972983122708F1000130F00071080319B4
:10031E009429F00D7010FF3E8E2970088316870405
:10032E00FA2983122808003A031DAD292708F10087
:10033E000130F00071080319A829F00D7010FF3E6E
:10034E00A229F009700883168805BC298312270894
:10035E00F1000130F00071080319B929F00D701089
:10036E00FF3EB329700883168804FA2983122808E1
:10037E00003A031DD2292708F1000130F000710860
:10038E000319CD29F00D7010FF3EC729F009700832
:10039E0083168905E12983122708F1000130F00048
:1003AE0071080319DE29F00D7010FF3ED829700870
:1003BE0083168904FA29FA29831203132608003AB0
:1003CE00031928292608013A03194E292608023A4C
:1003DE00031973292608033A031998292608043AA3
:0803EE000319BD29E2290800F2
:1003F600831203132408A6002508A7000130A800CD
:0404060027210800A2
:10040A00831203132408A6002508A700A8010320C5
:02041A000800D8
:10041C00831203132408A6002508A700A80127218E
:02042C000800C6
:10042E00831203132408A6002508A7000130A80094
:04043E00032008008F
:10044200831203132408A6002508A700C42008006D
:10045200013083120313A4000130A5000E220230E2
:1004620083120313A400A5010E2283120313A40115
:10047200A501FB2183120313A4010130A500FB2176
:1004820083120313A401A50121227008A200A40172
:100492000130A50021227008A3002208031D7F2A33
:1004A200230803197F2A0130A4000130A500172276
:1004B2000230A400A50117220330FB000830FC0023
:1004C2007730FD00FD0B632AFC0B632AFB0B632ACA
:1004D2000130A4000130A50005220230A400A501CC
:1004E20005220330FB000830FC007730FD00FD0BD5
:1004F200782AFC0B782AFB0B782ABD2A2308031DD5
:10050200B42A22080319B42A0130A4000130A5003C
:1005120017220230A400A50117220630FB00133077
:10052200FC00AD30FD00FD0B942AFC0B942AFB0B62
:10053200942A000000000130A4000130A500052229
:100542000230A400A50105220630FB001330FC0096
:10055200AD30FD00FD0BAB2AFC0BAB2AFB0BAB2A2B
:1005620000000000BD2A0130A4000130A5000522D0
:0C0572000230A400A5010522412ABE2A87
:02400E004A2F37
:00000001FF
